{
	"SmartCon.sol": {
		"Counter": {
			"abi": [
				{
					"anonymous": false,
					"inputs": [
						{
							"indexed": false,
							"internalType": "uint256",
							"name": "value",
							"type": "uint256"
						}
					],
					"name": "Decrement",
					"type": "event"
				},
				{
					"anonymous": false,
					"inputs": [
						{
							"indexed": false,
							"internalType": "uint256",
							"name": "value",
							"type": "uint256"
						}
					],
					"name": "Increment",
					"type": "event"
				},
				{
					"inputs": [],
					"name": "decrement",
					"outputs": [],
					"stateMutability": "nonpayable",
					"type": "function"
				},
				{
					"inputs": [],
					"name": "increment",
					"outputs": [],
					"stateMutability": "nonpayable",
					"type": "function"
				}
			],
			"devdoc": {
				"kind": "dev",
				"methods": {},
				"version": 1
			},
			"evm": {
				"assembly": "    /* \"SmartCon.sol\":28:343  contract Counter {... */\n  mstore(0x40, 0x80)\n    /* \"SmartCon.sol\":65:66  0 */\n  0x00\n    /* \"SmartCon.sol\":52:66  uint count = 0 */\n  dup1\n  sstore\n    /* \"SmartCon.sol\":28:343  contract Counter {... */\n  callvalue\n  dup1\n  iszero\n  tag_1\n  jumpi\n  0x00\n  dup1\n  revert\ntag_1:\n  pop\n  dataSize(sub_0)\n  dup1\n  dataOffset(sub_0)\n  0x00\n  codecopy\n  0x00\n  return\nstop\n\nsub_0: assembly {\n        /* \"SmartCon.sol\":28:343  contract Counter {... */\n      mstore(0x40, 0x80)\n      callvalue\n      dup1\n      iszero\n      tag_1\n      jumpi\n      0x00\n      dup1\n      revert\n    tag_1:\n      pop\n      jumpi(tag_2, lt(calldatasize, 0x04))\n      shr(0xe0, calldataload(0x00))\n      dup1\n      0x2baeceb7\n      eq\n      tag_3\n      jumpi\n      dup1\n      0xd09de08a\n      eq\n      tag_4\n      jumpi\n    tag_2:\n      0x00\n      dup1\n      revert\n        /* \"SmartCon.sol\":248:340  function decrement() public {... */\n    tag_3:\n      tag_5\n      tag_6\n      jump\t// in\n    tag_5:\n      stop\n        /* \"SmartCon.sol\":147:234  function increment() public {... */\n    tag_4:\n      tag_7\n      tag_8\n      jump\t// in\n    tag_7:\n      stop\n        /* \"SmartCon.sol\":248:340  function decrement() public {... */\n    tag_6:\n        /* \"SmartCon.sol\":297:298  1 */\n      0x01\n        /* \"SmartCon.sol\":288:293  count */\n      0x00\n      dup1\n        /* \"SmartCon.sol\":288:298  count -= 1 */\n      dup3\n      dup3\n      sload\n      tag_10\n      swap2\n      swap1\n      tag_11\n      jump\t// in\n    tag_10:\n      swap3\n      pop\n      pop\n      dup2\n      swap1\n      sstore\n      pop\n        /* \"SmartCon.sol\":315:331  Decrement(count) */\n      0x32814a5bdfd1b8c3d76c49c54e043d6e8aa93d197a09e16599b567135503f748\n        /* \"SmartCon.sol\":325:330  count */\n      sload(0x00)\n        /* \"SmartCon.sol\":315:331  Decrement(count) */\n      mload(0x40)\n      tag_12\n      swap2\n      swap1\n      tag_13\n      jump\t// in\n    tag_12:\n      mload(0x40)\n      dup1\n      swap2\n      sub\n      swap1\n      log1\n        /* \"SmartCon.sol\":248:340  function decrement() public {... */\n      jump\t// out\n        /* \"SmartCon.sol\":147:234  function increment() public {... */\n    tag_8:\n        /* \"SmartCon.sol\":195:196  1 */\n      0x01\n        /* \"SmartCon.sol\":186:191  count */\n      0x00\n      dup1\n        /* \"SmartCon.sol\":186:196  count += 1 */\n      dup3\n      dup3\n      sload\n      tag_15\n      swap2\n      swap1\n      tag_16\n      jump\t// in\n    tag_15:\n      swap3\n      pop\n      pop\n      dup2\n      swap1\n      sstore\n      pop\n        /* \"SmartCon.sol\":208:224  Increment(count) */\n      0x51af157c2eee40f68107a47a49c32fbbeb0a3c9e5cd37aa56e88e6be92368a81\n        /* \"SmartCon.sol\":218:223  count */\n      sload(0x00)\n        /* \"SmartCon.sol\":208:224  Increment(count) */\n      mload(0x40)\n      tag_17\n      swap2\n      swap1\n      tag_13\n      jump\t// in\n    tag_17:\n      mload(0x40)\n      dup1\n      swap2\n      sub\n      swap1\n      log1\n        /* \"SmartCon.sol\":147:234  function increment() public {... */\n      jump\t// out\n        /* \"#utility.yul\":7:84   */\n    tag_18:\n        /* \"#utility.yul\":44:51   */\n      0x00\n        /* \"#utility.yul\":73:78   */\n      dup2\n        /* \"#utility.yul\":62:78   */\n      swap1\n      pop\n        /* \"#utility.yul\":7:84   */\n      swap2\n      swap1\n      pop\n      jump\t// out\n        /* \"#utility.yul\":90:270   */\n    tag_19:\n        /* \"#utility.yul\":138:215   */\n      0x4e487b7100000000000000000000000000000000000000000000000000000000\n        /* \"#utility.yul\":135:136   */\n      0x00\n        /* \"#utility.yul\":128:216   */\n      mstore\n        /* \"#utility.yul\":235:239   */\n      0x11\n        /* \"#utility.yul\":232:233   */\n      0x04\n        /* \"#utility.yul\":225:240   */\n      mstore\n        /* \"#utility.yul\":259:263   */\n      0x24\n        /* \"#utility.yul\":256:257   */\n      0x00\n        /* \"#utility.yul\":249:264   */\n      revert\n        /* \"#utility.yul\":276:467   */\n    tag_11:\n        /* \"#utility.yul\":316:320   */\n      0x00\n        /* \"#utility.yul\":336:356   */\n      tag_25\n        /* \"#utility.yul\":354:355   */\n      dup3\n        /* \"#utility.yul\":336:356   */\n      tag_18\n      jump\t// in\n    tag_25:\n        /* \"#utility.yul\":331:356   */\n      swap2\n      pop\n        /* \"#utility.yul\":370:390   */\n      tag_26\n        /* \"#utility.yul\":388:389   */\n      dup4\n        /* \"#utility.yul\":370:390   */\n      tag_18\n      jump\t// in\n    tag_26:\n        /* \"#utility.yul\":365:390   */\n      swap3\n      pop\n        /* \"#utility.yul\":409:410   */\n      dup3\n        /* \"#utility.yul\":406:407   */\n      dup3\n        /* \"#utility.yul\":403:411   */\n      lt\n        /* \"#utility.yul\":400:434   */\n      iszero\n      tag_27\n      jumpi\n        /* \"#utility.yul\":414:432   */\n      tag_28\n      tag_19\n      jump\t// in\n    tag_28:\n        /* \"#utility.yul\":400:434   */\n    tag_27:\n        /* \"#utility.yul\":459:460   */\n      dup3\n        /* \"#utility.yul\":456:457   */\n      dup3\n        /* \"#utility.yul\":452:461   */\n      sub\n        /* \"#utility.yul\":444:461   */\n      swap1\n      pop\n        /* \"#utility.yul\":276:467   */\n      swap3\n      swap2\n      pop\n      pop\n      jump\t// out\n        /* \"#utility.yul\":473:591   */\n    tag_20:\n        /* \"#utility.yul\":560:584   */\n      tag_30\n        /* \"#utility.yul\":578:583   */\n      dup2\n        /* \"#utility.yul\":560:584   */\n      tag_18\n      jump\t// in\n    tag_30:\n        /* \"#utility.yul\":555:558   */\n      dup3\n        /* \"#utility.yul\":548:585   */\n      mstore\n        /* \"#utility.yul\":473:591   */\n      pop\n      pop\n      jump\t// out\n        /* \"#utility.yul\":597:819   */\n    tag_13:\n        /* \"#utility.yul\":690:694   */\n      0x00\n        /* \"#utility.yul\":728:730   */\n      0x20\n        /* \"#utility.yul\":717:726   */\n      dup3\n        /* \"#utility.yul\":713:731   */\n      add\n        /* \"#utility.yul\":705:731   */\n      swap1\n      pop\n        /* \"#utility.yul\":741:812   */\n      tag_32\n        /* \"#utility.yul\":809:810   */\n      0x00\n        /* \"#utility.yul\":798:807   */\n      dup4\n        /* \"#utility.yul\":794:811   */\n      add\n        /* \"#utility.yul\":785:791   */\n      dup5\n        /* \"#utility.yul\":741:812   */\n      tag_20\n      jump\t// in\n    tag_32:\n        /* \"#utility.yul\":597:819   */\n      swap3\n      swap2\n      pop\n      pop\n      jump\t// out\n        /* \"#utility.yul\":825:1130   */\n    tag_16:\n        /* \"#utility.yul\":865:868   */\n      0x00\n        /* \"#utility.yul\":884:904   */\n      tag_34\n        /* \"#utility.yul\":902:903   */\n      dup3\n        /* \"#utility.yul\":884:904   */\n      tag_18\n      jump\t// in\n    tag_34:\n        /* \"#utility.yul\":879:904   */\n      swap2\n      pop\n        /* \"#utility.yul\":918:938   */\n      tag_35\n        /* \"#utility.yul\":936:937   */\n      dup4\n        /* \"#utility.yul\":918:938   */\n      tag_18\n      jump\t// in\n    tag_35:\n        /* \"#utility.yul\":913:938   */\n      swap3\n      pop\n        /* \"#utility.yul\":1072:1073   */\n      dup3\n        /* \"#utility.yul\":1004:1070   */\n      0xffffffffffffffffffffffffffffffffffffffffffffffffffffffffffffffff\n        /* \"#utility.yul\":1000:1074   */\n      sub\n        /* \"#utility.yul\":997:998   */\n      dup3\n        /* \"#utility.yul\":994:1075   */\n      gt\n        /* \"#utility.yul\":991:1098   */\n      iszero\n      tag_36\n      jumpi\n        /* \"#utility.yul\":1078:1096   */\n      tag_37\n      tag_19\n      jump\t// in\n    tag_37:\n        /* \"#utility.yul\":991:1098   */\n    tag_36:\n        /* \"#utility.yul\":1122:1123   */\n      dup3\n        /* \"#utility.yul\":1119:1120   */\n      dup3\n        /* \"#utility.yul\":1115:1124   */\n      add\n        /* \"#utility.yul\":1108:1124   */\n      swap1\n      pop\n        /* \"#utility.yul\":825:1130   */\n      swap3\n      swap2\n      pop\n      pop\n      jump\t// out\n\n    auxdata: 0xa2646970667358221220ac0bdbb297bea6d12108ab3a3e2f6d84bf709236ae7ffc7c41615e12499cbb3264736f6c634300080a0033\n}\n",
				"bytecode": {
					"linkReferences": {},
					"object": "60806040526000805534801561001457600080fd5b5061021a806100246000396000f3fe608060405234801561001057600080fd5b50600436106100365760003560e01c80632baeceb71461003b578063d09de08a14610045575b600080fd5b61004361004f565b005b61004d6100a3565b005b60016000808282546100619190610130565b925050819055507f32814a5bdfd1b8c3d76c49c54e043d6e8aa93d197a09e16599b567135503f7486000546040516100999190610173565b60405180910390a1565b60016000808282546100b5919061018e565b925050819055507f51af157c2eee40f68107a47a49c32fbbeb0a3c9e5cd37aa56e88e6be92368a816000546040516100ed9190610173565b60405180910390a1565b6000819050919050565b7f4e487b7100000000000000000000000000000000000000000000000000000000600052601160045260246000fd5b600061013b826100f7565b9150610146836100f7565b92508282101561015957610158610101565b5b828203905092915050565b61016d816100f7565b82525050565b60006020820190506101886000830184610164565b92915050565b6000610199826100f7565b91506101a4836100f7565b9250827fffffffffffffffffffffffffffffffffffffffffffffffffffffffffffffffff038211156101d9576101d8610101565b5b82820190509291505056fea2646970667358221220ac0bdbb297bea6d12108ab3a3e2f6d84bf709236ae7ffc7c41615e12499cbb3264736f6c634300080a0033",
					"opcodes": "PUSH1 0x80 PUSH1 0x40 MSTORE PUSH1 0x0 DUP1 SSTORE CALLVALUE DUP1 ISZERO PUSH2 0x14 JUMPI PUSH1 0x0 DUP1 REVERT JUMPDEST POP PUSH2 0x21A DUP1 PUSH2 0x24 PUSH1 0x0 CODECOPY PUSH1 0x0 RETURN INVALID PUSH1 0x80 PUSH1 0x40 MSTORE CALLVALUE DUP1 ISZERO PUSH2 0x10 JUMPI PUSH1 0x0 DUP1 REVERT JUMPDEST POP PUSH1 0x4 CALLDATASIZE LT PUSH2 0x36 JUMPI PUSH1 0x0 CALLDATALOAD PUSH1 0xE0 SHR DUP1 PUSH4 0x2BAECEB7 EQ PUSH2 0x3B JUMPI DUP1 PUSH4 0xD09DE08A EQ PUSH2 0x45 JUMPI JUMPDEST PUSH1 0x0 DUP1 REVERT JUMPDEST PUSH2 0x43 PUSH2 0x4F JUMP JUMPDEST STOP JUMPDEST PUSH2 0x4D PUSH2 0xA3 JUMP JUMPDEST STOP JUMPDEST PUSH1 0x1 PUSH1 0x0 DUP1 DUP3 DUP3 SLOAD PUSH2 0x61 SWAP2 SWAP1 PUSH2 0x130 JUMP JUMPDEST SWAP3 POP POP DUP2 SWAP1 SSTORE POP PUSH32 0x32814A5BDFD1B8C3D76C49C54E043D6E8AA93D197A09E16599B567135503F748 PUSH1 0x0 SLOAD PUSH1 0x40 MLOAD PUSH2 0x99 SWAP2 SWAP1 PUSH2 0x173 JUMP JUMPDEST PUSH1 0x40 MLOAD DUP1 SWAP2 SUB SWAP1 LOG1 JUMP JUMPDEST PUSH1 0x1 PUSH1 0x0 DUP1 DUP3 DUP3 SLOAD PUSH2 0xB5 SWAP2 SWAP1 PUSH2 0x18E JUMP JUMPDEST SWAP3 POP POP DUP2 SWAP1 SSTORE POP PUSH32 0x51AF157C2EEE40F68107A47A49C32FBBEB0A3C9E5CD37AA56E88E6BE92368A81 PUSH1 0x0 SLOAD PUSH1 0x40 MLOAD PUSH2 0xED SWAP2 SWAP1 PUSH2 0x173 JUMP JUMPDEST PUSH1 0x40 MLOAD DUP1 SWAP2 SUB SWAP1 LOG1 JUMP JUMPDEST PUSH1 0x0 DUP2 SWAP1 POP SWAP2 SWAP1 POP JUMP JUMPDEST PUSH32 0x4E487B7100000000000000000000000000000000000000000000000000000000 PUSH1 0x0 MSTORE PUSH1 0x11 PUSH1 0x4 MSTORE PUSH1 0x24 PUSH1 0x0 REVERT JUMPDEST PUSH1 0x0 PUSH2 0x13B DUP3 PUSH2 0xF7 JUMP JUMPDEST SWAP2 POP PUSH2 0x146 DUP4 PUSH2 0xF7 JUMP JUMPDEST SWAP3 POP DUP3 DUP3 LT ISZERO PUSH2 0x159 JUMPI PUSH2 0x158 PUSH2 0x101 JUMP JUMPDEST JUMPDEST DUP3 DUP3 SUB SWAP1 POP SWAP3 SWAP2 POP POP JUMP JUMPDEST PUSH2 0x16D DUP2 PUSH2 0xF7 JUMP JUMPDEST DUP3 MSTORE POP POP JUMP JUMPDEST PUSH1 0x0 PUSH1 0x20 DUP3 ADD SWAP1 POP PUSH2 0x188 PUSH1 0x0 DUP4 ADD DUP5 PUSH2 0x164 JUMP JUMPDEST SWAP3 SWAP2 POP POP JUMP JUMPDEST PUSH1 0x0 PUSH2 0x199 DUP3 PUSH2 0xF7 JUMP JUMPDEST SWAP2 POP PUSH2 0x1A4 DUP4 PUSH2 0xF7 JUMP JUMPDEST SWAP3 POP DUP3 PUSH32 0xFFFFFFFFFFFFFFFFFFFFFFFFFFFFFFFFFFFFFFFFFFFFFFFFFFFFFFFFFFFFFFFF SUB DUP3 GT ISZERO PUSH2 0x1D9 JUMPI PUSH2 0x1D8 PUSH2 0x101 JUMP JUMPDEST JUMPDEST DUP3 DUP3 ADD SWAP1 POP SWAP3 SWAP2 POP POP JUMP INVALID LOG2 PUSH5 0x6970667358 0x22 SLT KECCAK256 0xAC SIGNEXTEND 0xDB 0xB2 SWAP8 0xBE 0xA6 0xD1 0x21 ADDMOD 0xAB GASPRICE RETURNDATACOPY 0x2F PUSH14 0x84BF709236AE7FFC7C41615E1249 SWAP13 0xBB ORIGIN PUSH5 0x736F6C6343 STOP ADDMOD EXP STOP CALLER "
				},
				"gasEstimates": {
					"creation": {
						"codeDepositCost": "107600",
						"executionCost": "5159",
						"totalCost": "112759"
					},
					"external": {
						"decrement()": "infinite",
						"increment()": "infinite"
					}
				},
				"methodIdentifiers": {
					"decrement()": "2baeceb7",
					"increment()": "d09de08a"
				}
			},
			"storageLayout": {
				"storage": [
					{
						"astId": 4,
						"contract": "SmartCon.sol:Counter",
						"label": "count",
						"offset": 0,
						"slot": "0",
						"type": "t_uint256"
					}
				],
				"types": {
					"t_uint256": {
						"encoding": "inplace",
						"label": "uint256",
						"numberOfBytes": "32"
					}
				}
			},
			"userdoc": {
				"kind": "user",
				"methods": {},
				"version": 1
			}
		}
	}
}